:100000000C9434000C9451000C9451000C94510049
:100010000C9451000C9451000C9451000C9451001C
:100020000C9451000C9451000C9451000C9451000C
:100030000C9451000C9451000C9451000C945100FC
:100040000C9451000C9451000C9451000C945100EC
:100050000C9451000C947B010C9451000C945100B1
:100060000C9451000C94510011241FBECFEFD8E026
:10007000DEBFCDBF11E0A0E0B1E0E4EAF3E002C0F2
:1000800005900D92AC30B107D9F721E0ACE0B1E0BA
:1000900001C01D92A431B207E1F70E94B5000C9493
:1000A000D0010C9400002B9A80E18A95F1F700C0F2
:1000B00085B1807F85B908951AB82C9A85B1807C66
:1000C00085B95F9B04C00E9453005F99FCCF8FEFFE
:1000D0008AB90895CF93C82F0E945C00CBB985B12F
:1000E0008F7C85B90E9453001BB8CF910895CF93A0
:1000F000C82F0E945C00CBB985B1807E85B92D9A4E
:100100000E9453001BB8CF910895CF93DF93EC0169
:100110008881882361F021960E94770083EC99E022
:100120000197F1F700C0000089918111F5CFDF91AF
:10013000CF910895E0E8F0E08081826A8083E1E871
:10014000F0E08081896180838091000190910101BC
:100150009093870080938600109289001092880007
:1001600010928B0010928A00089584B1886384B93C
:100170002B982C982D988EEF84B9289A29983A9A22
:10018000429A8FEF8AB91BB8789485EA9EE001976E
:10019000F1F700C0000081E00E946A0083EF91E067
:1001A0000197F1F700C0000088E30E946A0090E127
:1001B0009A95F1F700C08CE00E946A0020E12A9530
:1001C000F1F700C080E80E946A0083EF91E0019798
:1001D000F1F700C0000082E091E00E94850083EF0B
:1001E00091E00197F1F700C000008AE80E946A00E0
:1001F00083EF91E00197F1F700C0000084E091E007
:100200000E94850083EF91E00197F1F700C00000A4
:1002100084E90E946A0083EF91E00197F1F700C042
:10022000000087E091E00E94850083EF91E0019754
:10023000F1F700C000008EE90E946A0083EF91E0B0
:100240000197F1F700C000008AE091E00E9485006C
:1002500083EF91E00197F1F700C0000084ED0E9468
:100260006A0083EF91E00197F1F700C0000086E09B
:1002700091E00E94850083EF91E00197F1F700C0C3
:1002800000008EED0E946A0083EF91E00197F1F784
:1002900000C0000089E091E00E94850083EF91E0BA
:1002A0000197F1F700C000000E949A0080E197E2F8
:1002B000909387008093860084EC99E090938B0064
:1002C00080938A009093890080938800429A9FE3EC
:1002D0002DE083E0915020408040E1F700C0000015
:1002E00042989FE32DE083E0915020408040E1F769
:1002F00000C00000EBCF1F920F920FB60F92112497
:100300002F933F938F939F93909178002091790042
:1003100030E0220F331F220F331F892F90E0082E69
:10032000892F000C881F990B000C881F991F822BA6
:10033000932B90930D0180930C0180917C0080366B
:1003400019F0813699F023C080910C0190910D0134
:10035000909311018093100181E090E0909313013C
:100360008093120181E680937C0011C080910C0182
:1003700090910D0190930F0180930E0182E090E027
:10038000909313018093120180E680937C009F91EB
:100390008F913F912F910F900FBE0F901F90189546
:0403A000F894FFCFFF
:0C03A4000019580059003141003142009E
:00000001FF
